{
  "_format": "hh-sol-artifact-1",
  "contractName": "MyToken",
  "sourceName": "contracts/MyToken.sol",
  "abi": [
    {
      "inputs": [
        {
          "internalType": "string",
          "name": "_tokenName",
          "type": "string"
        },
        {
          "internalType": "string",
          "name": "_tokenSymbol",
          "type": "string"
        },
        {
          "internalType": "uint256",
          "name": "_initialTokenSupply",
          "type": "uint256"
        }
      ],
      "stateMutability": "nonpayable",
      "type": "constructor"
    },
    {
      "inputs": [
        {
          "internalType": "address",
          "name": "",
          "type": "address"
        }
      ],
      "name": "balances",
      "outputs": [
        {
          "internalType": "uint256",
          "name": "",
          "type": "uint256"
        }
      ],
      "stateMutability": "view",
      "type": "function"
    },
    {
      "inputs": [
        {
          "internalType": "uint256",
          "name": "amount",
          "type": "uint256"
        }
      ],
      "name": "burn_tokens",
      "outputs": [],
      "stateMutability": "nonpayable",
      "type": "function"
    },
    {
      "inputs": [
        {
          "internalType": "address",
          "name": "account_address",
          "type": "address"
        },
        {
          "internalType": "uint256",
          "name": "amount",
          "type": "uint256"
        }
      ],
      "name": "mint_tokens",
      "outputs": [],
      "stateMutability": "nonpayable",
      "type": "function"
    },
    {
      "inputs": [],
      "name": "owner",
      "outputs": [
        {
          "internalType": "address",
          "name": "",
          "type": "address"
        }
      ],
      "stateMutability": "view",
      "type": "function"
    },
    {
      "inputs": [],
      "name": "tokenName",
      "outputs": [
        {
          "internalType": "string",
          "name": "",
          "type": "string"
        }
      ],
      "stateMutability": "view",
      "type": "function"
    },
    {
      "inputs": [],
      "name": "tokenSymbol",
      "outputs": [
        {
          "internalType": "string",
          "name": "",
          "type": "string"
        }
      ],
      "stateMutability": "view",
      "type": "function"
    },
    {
      "inputs": [],
      "name": "totalSupply",
      "outputs": [
        {
          "internalType": "uint256",
          "name": "",
          "type": "uint256"
        }
      ],
      "stateMutability": "view",
      "type": "function"
    },
    {
      "inputs": [
        {
          "internalType": "address",
          "name": "receiver_address",
          "type": "address"
        },
        {
          "internalType": "uint256",
          "name": "amount",
          "type": "uint256"
        }
      ],
      "name": "transfer_tokens",
      "outputs": [],
      "stateMutability": "nonpayable",
      "type": "function"
    }
  ],
  "bytecode": "0x608060405234801561001057600080fd5b5060405161084338038061084383398101604081905261002f91610137565b600061003b848261022c565b506001610048838261022c565b50600281905533600081815260046020526040902091909155600380546001600160a01b0319169091179055506102eb9050565b634e487b7160e01b600052604160045260246000fd5b600082601f8301126100a357600080fd5b81516001600160401b03808211156100bd576100bd61007c565b604051601f8301601f19908116603f011681019082821181831017156100e5576100e561007c565b8160405283815260209250868385880101111561010157600080fd5b600091505b838210156101235785820183015181830184015290820190610106565b600093810190920192909252949350505050565b60008060006060848603121561014c57600080fd5b83516001600160401b038082111561016357600080fd5b61016f87838801610092565b9450602086015191508082111561018557600080fd5b5061019286828701610092565b925050604084015190509250925092565b600181811c908216806101b757607f821691505b6020821081036101d757634e487b7160e01b600052602260045260246000fd5b50919050565b601f82111561022757600081815260208120601f850160051c810160208610156102045750805b601f850160051c820191505b8181101561022357828155600101610210565b5050505b505050565b81516001600160401b038111156102455761024561007c565b6102598161025384546101a3565b846101dd565b602080601f83116001811461028e57600084156102765750858301515b600019600386901b1c1916600185901b178555610223565b600085815260208120601f198616915b828110156102bd5788860151825594840194600190910190840161029e565b50858210156102db5787850151600019600388901b60f8161c191681555b5050505050600190811b01905550565b610549806102fa6000396000f3fe608060405234801561001057600080fd5b50600436106100885760003560e01c80636c02a9311161005b5780636c02a931146100f15780637b61c320146101065780638da5cb5b1461010e578063d35cf9131461013957600080fd5b806318160ddd1461008d57806327e235e3146100a95780633d6c1c1f146100c957806343fffc59146100de575b600080fd5b61009660025481565b6040519081526020015b60405180910390f35b6100966100b73660046103e4565b60046020526000908152604090205481565b6100dc6100d7366004610406565b61014c565b005b6100dc6100ec36600461041f565b6101e7565b6100f9610292565b6040516100a09190610449565b6100f9610320565b600354610121906001600160a01b031681565b6040516001600160a01b0390911681526020016100a0565b6100dc61014736600461041f565b61032d565b336000908152600460205260409020548111156101a75760405162461bcd60e51b8152602060048201526014602482015273496e73756666696369656e742062616c616e636560601b60448201526064015b60405180910390fd5b33600090815260046020526040812080548392906101c69084906104ad565b9250508190555080600260008282546101df91906104ad565b909155505050565b3360009081526004602052604090205481111561023d5760405162461bcd60e51b8152602060048201526014602482015273496e73756666696369656e742062616c616e636560601b604482015260640161019e565b336000908152600460205260408120805483929061025c9084906104ad565b90915550506001600160a01b038216600090815260046020526040812080548392906102899084906104c6565b90915550505050565b6000805461029f906104d9565b80601f01602080910402602001604051908101604052809291908181526020018280546102cb906104d9565b80156103185780601f106102ed57610100808354040283529160200191610318565b820191906000526020600020905b8154815290600101906020018083116102fb57829003601f168201915b505050505081565b6001805461029f906104d9565b6003546001600160a01b031633146103875760405162461bcd60e51b815260206004820152601a60248201527f4f6e6c79204f776e65722063616e206d696e7420746f6b656e73000000000000604482015260640161019e565b6001600160a01b038216600090815260046020526040812080548392906103af9084906104c6565b92505081905550806002600082825461028991906104c6565b80356001600160a01b03811681146103df57600080fd5b919050565b6000602082840312156103f657600080fd5b6103ff826103c8565b9392505050565b60006020828403121561041857600080fd5b5035919050565b6000806040838503121561043257600080fd5b61043b836103c8565b946020939093013593505050565b600060208083528351808285015260005b818110156104765785810183015185820160400152820161045a565b506000604082860101526040601f19601f8301168501019250505092915050565b634e487b7160e01b600052601160045260246000fd5b818103818111156104c0576104c0610497565b92915050565b808201808211156104c0576104c0610497565b600181811c908216806104ed57607f821691505b60208210810361050d57634e487b7160e01b600052602260045260246000fd5b5091905056fea2646970667358221220d82e5d9734c220f84143e6a26d4b6fdb63af384ecf85a5152d13afabc1a83fb564736f6c63430008120033",
  "linkReferences": {},
  "deployedLinkReferences": {}
}